:020000040800F2
:1000000000000220911E0008C91D0008D71D00082D
:10001000DD1D0008E31D0008E91D000800000000C8
:10002000000000000000000000000000EF1D0008BC
:10003000FD1D0008000000000B1E0008191E00082E
:10004000E11E0008E11E0008E11E0008E11E000894
:10005000E11E0008E11E0008E11E0008E11E000884
:10006000E11E0008E11E0008E11E0008E11E000874
:10007000E11E0008E11E0008E11E0008E11E000864
:10008000E11E0008E11E0008E11E0008000000005B
:10009000000000000000000000000000E11E000859
:1000A000E11E0008E11E0008E11E0008E11E000834
:1000B000E11E0008E11E0008E11E0008E11E000824
:1000C000E11E0008E11E0008E11E0008E11E000814
:1000D000E11E0008E11E0008E11E0008000000000B
:1000E000E11E0008E11E0008E11E000800000000FB
:1000F000000000000000000000000000E11E0008F9
:1001000000000000E11E0008E11E0008E11E0008DA
:1001100000000000000000000000000000000000DF
:10012000E11E0008E11E0008E11E0008E11E0008B3
:10013000E11E0008000000000000000000000000B8
:10014000000000000000000000000000E11E0008A8
:10015000E11E0008E11E0008E11E0008E11E000883
:10016000E11E0008E11E0008000000000000000081
:10017000000000000000000000000000000000007F
:1001800000000000E11E0008000000000000000068
:08019000E11E0008E11E000859
:1001980010B5054C237833B9044B13B10448AFF3B9
:1001A80000800123237010BD3C00002000000000E7
:1001B8003C1F000808B5034B1BB103490348AFF3C4
:1001C800008008BD00000000400000203C1F00081F
:1001D80053B94AB9002908BF00281CBF4FF0FF31A6
:1001E8004FF0FF3000F072B9ADF1080C6DE904CEA4
:1001F80000F006F8DDF804E0DDE9022304B07047FA
:100208002DE9F047089E04468846002B4BD18A42C8
:10021800154667D9B2FA82F24AB1C2F1200701FA4B
:1002280002F320FA07F7954047EA030894404FEA9B
:10023800154E230CB8FBFEF71FFA85FC0EFB17883A
:1002480043EA084307FB0CF1994209D9EB1807F177
:10025800FF3080F01B81994240F21881023F2B4405
:100268005B1AA4B2B3FBFEF00EFB103344EA03445E
:1002780000FB0CFCA44509D92C1900F1FF3380F0D0
:100288000781A44540F2048102382C4440EA074023
:10029800A4EB0C0400271EB1D4400023C6E9004398
:1002A8003946BDE8F0878B4209D9002E00F0EB8073
:1002B8000027C6E9000138463946BDE8F087B3FA99
:1002C80083F7002F47D18B4202D3824200F2FA8093
:1002D800841A61EB030301209846002EE0D0C6E99A
:1002E8000048DDE702B9FFDEB2FA82F2002A40F0E8
:1002F8008F80491B4FEA154E1FFA85F80127B1FB7D
:10030800FEFC230C0EFB1C1143EA014308FB0CF115
:10031800994207D9EB180CF1FF3002D2994200F24A
:10032800CD808446591AA3B2B1FBFEF00EFB10141F
:1003380043EA044408FB00F8A04507D92C1900F14A
:10034800FF3302D2A04500F2B6801846A4EB080499
:1003580040EA0C409FE7C7F1200CBB4022FA0CFE94
:100368004EEA030E01FA07F420FA0CF521FA0CF311
:100378004FEA1E482543B3FBF8F92C0C08FB193348
:100388001FFA8EFA44EA034309FB0AF49C4202FA74
:1003980007F200FA07F10BD91EEB030309F1FF304E
:1003A80080F087809C4240F28480A9F1020973445E
:1003B8001B1BADB2B3FBF8F008FB103345EA03444E
:1003C80000FB0AFAA24508D91EEB040400F1FF332A
:1003D8006BD2A24569D90238744440EA0940A0FBAF
:1003E8000289A4EB0A044C45C2464B4654D351D06B
:1003F800002E69D0B1EB0A0564EB030404FA0CFC87
:10040800FD40FC404CEA0505C6E90054002747E7D3
:10041800C2F1200320FA03F7954001FA02F021FA0D
:1004280003F34FEA154E3843010CB3FBFEF71FFAEE
:1004380085F80EFB173341EA034107FB08F38B42AB
:1004480004FA02F407D9691807F1FF3C2FD28B424E
:100458002DD9023F2944CB1A81B2B3FBFEF00EFB23
:10046800103341EA034100FB08F38B4207D96918AE
:1004780000F1FF3C17D28B4215D902382944C91A1A
:1004880040EA07473BE73746304609E70746E7E6CD
:100498001846FBE64145ABD2B8EB020A69EB0E02FF
:1004A80001381346A4E76046E9E7184695E767462A
:1004B800D1E781467CE702382C4447E7ACF1020CCF
:1004C8002B442FE7384608E73746E9E6704700BF70
:1004D800034613F8012B002AFBD1181A013870477C
:1004E80080B500AF0E4B1B680D4A43F400731360D0
:1004F8000B4B1B680A4A43F480631360084B1B6864
:10050800074A43F480731360032000F00DF90020BC
:1005180000F008F801F0E4FB0023184680BD00BF96
:10052800003C024080B582B000AF7860124B1A6878
:10053800124B1B7819464FF47A73B3FBF1F3B2FBF5
:10054800F3F3184600F017F90346002B01D00123F6
:100558000EE07B680F2B0AD8002279684FF0FF3035
:1005680000F0EDF8064A7B681360002300E00123E1
:1005780018460837BD4680BD38000020040000201A
:100588000000002080B400AF064B1B781A46064BCB
:100598001B681344044A136000BFBD465DF8047B22
:1005A800704700BF040000205800002080B400AF4E
:1005B800034B1B681846BD465DF8047B704700BFB7
:1005C8005800002080B485B000AF78607B6803F0E5
:1005D8000703FB600C4BDB68BB60BA684FF6FF0390
:1005E8001340BB60FB681A02BB68134343F0BF6348
:1005F80043F40033BB60044ABB68D36000BF1437C0
:10060800BD465DF8047B704700ED00E080B400AFA4
:10061800044BDB681B0A03F007031846BD465DF868
:10062800047B704700ED00E080B483B000AF034660
:100638003960FB7197F90730002B0ADB3B68DAB2A7
:100648000C4997F907301201D2B20B4483F8002302
:100658000AE03B68DAB20849FB7903F00F03043B70
:100668001201D2B20B441A7600BF0C37BD465DF8B2
:10067800047B704700E100E000ED00E080B489B041
:1006880000AFF860B9607A60FB6803F00703FB61AC
:10069800FB69C3F10703042B28BF0423BB61FB6973
:1006A8000433062B02D9FB69033B00E000237B617E
:1006B8004FF0FF32BB6902FA03F3DA43BB681A4012
:1006C8007B699A404FF0FF317B6901FA03F3D94304
:1006D8007B680B40134318462437BD465DF8047BFE
:1006E8007047000080B582B000AF78607B68013B3E
:1006F800B3F1807F01D301230FE00A4A7B68013BF5
:1007080053600F214FF0FF30FFF78EFF054B00229B
:100718009A60044B07221A60002318460837BD4622
:1007280080BD00BF10E000E080B582B000AF786007
:100738007868FFF747FF00BF0837BD4680BD80B522
:1007480086B000AF0346B9607A60FB7300237B6113
:10075800FFF75CFF78617A68B9687869FFF78EFF00
:10076800024697F90F3011461846FFF75DFF00BFA4
:100778001837BD4680BD80B582B000AF7860786814
:10078800FFF7B0FF034618460837BD4680BD000096
:1007980080B489B000AF7860396000237B610023A2
:1007A8003B610023BB610023FB6159E10122FB6926
:1007B80002FA03F37B613B681B687A6913403B616B
:1007C8003A697B699A4240F048813B685B68022B32
:1007D80003D03B685B68122B23D1FB69DA087B687E
:1007E800083253F82230BB61FB6903F007039B0012
:1007F8000F2202FA03F3DB43BA691340BB613B687B
:100808001A69FB6903F007039B0002FA03F3BA694C
:100818001343BB61FB69DA087B680832B96943F89E
:1008280022107B681B68BB61FB695B00032202FA2C
:1008380003F3DB43BA691340BB613B685B6803F0B1
:100848000302FB695B0002FA03F3BA691343BB6155
:100858007B68BA691A603B685B68012B0BD03B6800
:100868005B68022B07D03B685B68112B03D03B68A1
:100878005B68122B30D17B689B68BB61FB695B00AE
:10088800032202FA03F3DB43BA691340BB613B68F6
:10089800DA68FB695B0002FA03F3BA691343BB61C8
:1008A8007B68BA699A607B685B68BB610122FB69F7
:1008B80002FA03F3DB43BA691340BB613B685B6828
:1008C8001B0903F00102FB6902FA03F3BA69134337
:1008D800BB617B68BA695A607B68DB68BB61FB698E
:1008E8005B00032202FA03F3DB43BA691340BB61DE
:1008F8003B689A68FB695B0002FA03F3BA69134321
:10090800BB617B68BA69DA603B685B6803F0805357
:10091800002B00F0A2800023FB60564B5B6C554A0D
:1009280043F480435364534B5B6C03F48043FB6094
:10093800FB68514AFB699B08023352F82330BB61BC
:10094800FB6903F003039B000F2202FA03F3DB4366
:10095800BA691340BB617B68484A934219D07B68E7
:10096800474A934213D07B68464A93420DD07B682E
:10097800454A934207D07B68444A934201D10423F5
:1009880008E0072306E0032304E0022302E0012332
:1009980000E00023FA6902F0030292009340BA696A
:1009A8001343BB613449FB699B080233BA6941F8B8
:1009B8002320374B1B68BB613B69DB43BA69134093
:1009C800BB613B685B6803F48033002B03D0BA69D2
:1009D8003B691343BB612E4ABB6913602C4B5B68B0
:1009E800BB613B69DB43BA691340BB613B685B6829
:1009F80003F40033002B03D0BA693B691343BB618E
:100A0800234ABB695360224B9B68BB613B69DB434C
:100A1800BA691340BB613B685B6803F48013002B21
:100A280003D0BA693B691343BB61194ABB69936038
:100A3800174BDB68BB613B69DB43BA691340BB6199
:100A48003B685B6803F40013002B03D0BA693B6969
:100A58001343BB610E4ABB69D360FB690133FB6179
:100A6800FB690F2B7FF6A2AE00BF2437BD465DF8A9
:100A7800047B704700380240003801400000024003
:100A88000004024000080240000C0240001002402E
:100A9800003C014080B586B000AF78607B68002BD1
:100AA80001D101232DE27B681B6803F00103002BB1
:100AB80075D0A34B9B6803F00C03042B0CD0A04B00
:100AC8009B6803F00C03082B12D19D4B5B6803F461
:100AD8008003B3F5800F0BD1994B1B6803F40033E7
:100AE800002B5BD07B685B68002B57D1012308E2A1
:100AF8007B685B68B3F5803F06D1914B1B68904AD1
:100B080043F4803313601DE07B685B68B3F5A02F66
:100B18000CD18B4B1B688A4A43F480231360884BA3
:100B28001B68874A43F4803313600BE0844B1B68CF
:100B3800834A23F480331360814B1B68804A23F473
:100B4800802313607B685B68002B13D0FFF72EFDB2
:100B5800386108E0FFF72AFD02463B69D31A642B87
:100B680001D90323CDE1764B1B6803F40033002B36
:100B7800F0D014E0FFF71AFD386108E0FFF716FD22
:100B880002463B69D31A642B01D90323B9E16C4BA4
:100B98001B6803F40033002BF0D100E000BF7B6832
:100BA8001B6803F00203002B63D0654B9B6803F0BE
:100BB8000C03002B0BD0624B9B6803F00C03082B33
:100BC8001CD15F4B5B6803F48003002B16D15C4B90
:100BD8001B6803F00203002B05D07B68DB68012B40
:100BE80001D001238DE1564B1B6823F0F8027B6886
:100BF8001B69DB00524913430B603AE07B68DB68F2
:100C0800002B20D04F4B01221A60FFF7CFFC386130
:100C180008E0FFF7CBFC02463B69D31A022B01D947
:100C280003236EE1464B1B6803F00203002BF0D050
:100C3800434B1B6823F0F8027B681B69DB004049C3
:100C480013430B6015E03F4B00221A60FFF7AEFC20
:100C5800386108E0FFF7AAFC02463B69D31A022B69
:100C680001D903234DE1364B1B6803F00203002B27
:100C7800F0D17B681B6803F00803002B30D07B6839
:100C88005B69002B16D0304B01221A60FFF78EFCEF
:100C9800386108E0FFF78AFC02463B69D31A022B49
:100CA80001D903232DE1264B5B6F03F00203002BD0
:100CB800F0D015E0244B00221A60FFF777FC38616A
:100CC80008E0FFF773FC02463B69D31A022B01D9EF
:100CD800032316E11A4B5B6F03F00203002BF0D1DC
:100CE8007B681B6803F00403002B00F0A08000233E
:100CF800FB75134B1B6C03F08053002B0FD10023A3
:100D0800FB600F4B1B6C0E4A43F0805313640C4B73
:100D18001B6C03F08053FB60FB680123FB750B4BD6
:100D28001B6803F48073002B21D1084B1B68074A0A
:100D380043F480731360FFF739FC386111E000BF9A
:100D48000038024000004742800E474200700040D1
:100D5800FFF72CFC02463B69D31A022B01D9032367
:100D6800CFE06A4B1B6803F48073002BF0D07B68DC
:100D78009B68012B06D1664B1B6F654A43F0010344
:100D880013671CE07B689B68052B0CD1604B1B6FBD
:100D98005F4A43F0040313675D4B1B6F5C4A43F0E3
:100DA800010313670BE05A4B1B6F594A23F00103E9
:100DB8001367574B1B6F564A23F0040313677B686E
:100DC8009B68002B15D0FFF7F1FB38610AE0FFF7AD
:100DD800EDFB02463B69D31A41F28832934201D9AE
:100DE80003238EE04A4B1B6F03F00203002BEED067
:100DF80014E0FFF7DBFB38610AE0FFF7D7FB024698
:100E08003B69D31A41F28832934201D9032378E02F
:100E18003F4B1B6F03F00203002BEED1FB7D012B30
:100E280005D13B4B1B6C3A4A23F0805313647B6813
:100E38009B69002B64D0364B9B6803F00C03082B8E
:100E48005CD07B689B69022B41D1324B00221A602F
:100E5800FFF7ACFB386108E0FFF7A8FB02463B69E7
:100E6800D31A022B01D903234BE0294B1B6803F04B
:100E78000073002BF0D17B68DA697B681B6A1A4320
:100E88007B685B6A9B011A437B689B6A5B08013B32
:100E98001B041A437B68DB6A1B061D4913434B601E
:100EA8001C4B01221A60FFF781FB386108E0FFF74D
:100EB8007DFB02463B69D31A022B01D9032320E0AC
:100EC800134B1B6803F00073002BF0D018E0114B94
:100ED80000221A60FFF76AFB386108E0FFF766FB3B
:100EE80002463B69D31A022B01D9032309E0084BB8
:100EF8001B6803F00073002BF0D101E0012300E030
:100F0800002318461837BD4680BD00BF007000405A
:100F1800003802406000474280B584B000AF786076
:100F280039607B68002B01D10123CAE0674B1B683D
:100F380003F00F033A689A420CD9644B3A68D2B26C
:100F48001A70624B1B6803F00F033A689A4201D08B
:100F58000123B6E07B681B6803F00203002B20D056
:100F68007B681B6803F00403002B05D0584B9B6873
:100F7800574A43F4E05393607B681B6803F0080307
:100F8800002B05D0524B9B68514A43F46043936051
:100F98004F4B9B6823F0F0027B689B684C491343D6
:100FA8008B607B681B6803F00103002B44D07B68CF
:100FB8005B68012B07D1464B1B6803F40033002BF9
:100FC80019D101237DE07B685B68022B03D07B6825
:100FD8005B68032B07D13E4B1B6803F00073002BA3
:100FE80009D101236DE03A4B1B6803F00203002B83
:100FF80001D1012365E0364B9B6823F003027B682F
:101008005B68334913438B60FFF7D0FAF8600AE056
:10101800FFF7CCFA0246FB68D31A41F288329342B2
:1010280001D903234DE02A4B9B6803F00C027B682F
:101038005B689B009A42EBD1244B1B6803F00F03BB
:101048003A689A420CD2214B3A68D2B21A701F4BB6
:101058001B6803F00F033A689A4201D0012330E07D
:101068007B681B6803F00403002B08D0184B9B68AF
:1010780023F4E0527B68DB68154913438B607B6877
:101088001B6803F00803002B09D0114B9B6823F45D
:1010980060427B681B69DB000D4913438B6000F0DD
:1010A8001DF801460A4B9B681B0903F00F03094A08
:1010B800D35C21FA03F3084A13600020FFF732FAE1
:1010C800002318461037BD4680BD00BF003C0240D3
:1010D80000380240541F000838000020F0B585B0E1
:1010E80000AF00237B600023FB6000233B600023EC
:1010F800BB60504B9B6803F00C03042B07D0082BF4
:1011080008D0002B40F08D804B4BBB608CE04B4BE4
:10111800BB6089E0474B5B6803F03F037B60454B4E
:101128005B6803F48003002B23D0424B5B689B0968
:101138004FF0000440F2FF114FF0000203EA0105EE
:1011480004EA02063D4A02FB06F1002202FB05F210
:101158000A443A49A5FB0101531819467B684FF028
:1011680000041A462346FFF733F803460C46FB6093
:1011780049E0304B5B689B094FF0000440F2FF11D7
:101188004FF0000203EA010504EA02062946324646
:101198004FF000034FF00004540144EAD1644B01BE
:1011A80019462246491B62EB06024FF000034FF036
:1011B8000004940144EA91648B015B1A64EB020415
:1011C8004FF000014FF00002E20042EA5372D900EA
:1011D8000B4614465B1944EB06044FF000014FF030
:1011E8000002A20242EA935299020B46144618469C
:1011F80021467B684FF000041A462346FEF7E8FFB5
:1012080003460C46FB600B4B5B681B0C03F00303A7
:1012180001335B003B60FA683B68B2FBF3F3BB60E9
:1012280002E0054BBB6000BFBB6818461437BD46DB
:10123800F0BD00BF003802400024F40040787D0172
:1012480080B400AF034B1B681846BD465DF8047BAD
:10125800704700BF3800002080B500AFFFF7F0FFEF
:101268000146054B9B689B0A03F00703034AD35CBE
:1012780021FA03F3184680BD00380240641F0008B5
:1012880080B500AFFFF7DCFF0146054B9B685B0BA1
:1012980003F00703034AD35C21FA03F3184680BD21
:1012A80000380240641F000880B582B000AF786043
:1012B8007B68002B01D101233FE07B6893F839302C
:1012C800DBB2002B06D17B68002283F838207868CF
:1012D80000F02EFD7B68242283F839207B681B6888
:1012E800DA687B681B6822F40052DA60786800F0DC
:1012F800B1F97B681B681A697B681B6822F4904205
:101308001A617B681B685A697B681B6822F02A028D
:101318005A617B681B68DA687B681B6842F4005274
:10132800DA607B680022DA637B68202283F8392040
:101338007B68202283F83A20002318460837BD46E8
:1013480080BD80B588B002AFF860B9603B601346D5
:10135800FB8000237B61FB6893F83930DBB2202BDC
:1013680040F08380BB68002B02D0FB88002B01D1A2
:1013780001237BE0FB6893F83830012B01D102236D
:1013880074E0FB68012283F83820FB680022DA63E6
:10139800FB68212283F83920FFF708F97861FB6898
:1013A800FA889A84FB68FA88DA8442E0FB68DB8C66
:1013B8009BB2013B9AB2FB68DA84FB689B68B3F581
:1013C800805F22D13B6800937B6900228021F86806
:1013D80000F0F6F80346002B01D0032346E0BB6873
:1013E8003B613B691B881A46FB681B68C2F308020D
:1013F8005A60FB681B69002B03D1BB680233BB60D2
:1014080017E0BB680133BB6013E03B6800937B695E
:1014180000228021F86800F0D3F80346002B01D0A1
:10142800032323E0BB685A1CBA601A78FB681B6860
:101438005A60FB68DB8C9BB2002BB7D13B680093EA
:101448007B6900224021F86800F0BAF80346002BB7
:1014580001D003230AE0FB68202283F83920FB68C7
:10146800002283F83820002300E0022318461837AA
:10147800BD4680BD80B588B002AFF860B9603B60FA
:101488001346FB8000237B61FB6893F83A30DBB29C
:10149800202B40F09080BB68002B02D0FB88002BEB
:1014A80001D1012388E0FB6893F83830012B01D182
:1014B800022381E0FB68012283F83820FB680022C0
:1014C800DA63FB68222283F83A20FFF76FF8786125
:1014D800FB68FA889A85FB68FA88DA855CE0FB681D
:1014E800DB8D9BB2013B9AB2FB68DA85FB689B688F
:1014F800B3F5805F2BD13B6800937B6900222021E4
:10150800F86800F05DF80346002B01D0032353E090
:10151800BB683B61FB681B69002B0CD1FB681B682F
:101528005B689BB2C3F308039AB23B691A80BB6835
:101538000233BB6030E0FB681B685B689BB2DBB2C0
:101548009AB23B691A80BB680133BB6024E03B68F0
:1015580000937B6900222021F86800F031F80346E7
:10156800002B01D0032327E0FB681B69002B08D15F
:10157800FB681B685968BB685A1CBA60CAB21A7003
:101588000AE0FB681B685B68DAB2BB68591CB96083
:1015980002F07F02D2B21A70FB68DB8D9BB2002B7F
:1015A8009DD1FB68202283F83A20FB68002283F84B
:1015B8003820002300E0022318461837BD4680BDB6
:1015C80080B584B000AFF860B9603B601346FB712A
:1015D8002CE0BB69B3F1FF3F28D0BB69002B07D0D3
:1015E800FEF7E4FF02463B68D31ABA699A421DD255
:1015F800FB681B68DA68FB681B6822F4D072DA6043
:10160800FB681B685A69FB681B6822F001025A6173
:10161800FB68202283F83920FB68202283F83A20CF
:10162800FB68002283F8382003230FE0FB681B685F
:101638001A68BB681340BA689A420CBF012300239A
:10164800DBB21A46FB799A42C3D0002318461037FA
:10165800BD4680BDB0B584B000AF78607B681B68BC
:101668001B6923F440517B68DA687B681B680A436E
:101678001A617B689A687B681B691A437B685B6997
:101688001A437B68DB691343FB607B681B68DB6874
:1016980023F4164323F00C037A681268F9680B43A5
:1016A800D3607B681B685B6923F440717B689A6927
:1016B8007B681B680A435A617B68DB69B3F5004F96
:1016C80040F0E4807B681B68AB4A934204D07B6897
:1016D8001B68AA4A93426CD1FFF7D2FD0246134613
:1016E8009B0013449A001A447B685B685B00B2FB5A
:1016F800F3F3A34AA2FB03235B091C01FFF7C0FD18
:10170800024613469B0013449A001A447B685B68A0
:101718005B00B2FBF3F5FFF7B3FD024613469B00EF
:1017280013449A001A447B685B685B00B2FBF3F3CE
:10173800934AA2FB03235B09642202FB03F3EB1A1F
:10174800DB0032338E4AA2FB03235B095B0003F400
:10175800F8731C44FFF794FD024613469B0013449C
:101768009A001A447B685B685B00B2FBF3F5FFF7ED
:1017780087FD024613469B0013449A001A447B686F
:101788005B685B00B2FBF3F37D4AA2FB03235B09B2
:10179800642202FB03F3EB1ADB003233784AA2FB24
:1017A80003235B0903F007027B681B6822449A60E5
:1017B80054E1FFF751FD024613469B0013449A007B
:1017C8001A447B685B685B00B2FBF3F36C4AA2FBCC
:1017D80003235B091C01FFF73FFD024613469B00EC
:1017E80013449A001A447B685B685B00B2FBF3F50C
:1017F800FFF732FD024613469B0013449A001A4431
:101808007B685B685B00B2FBF3F35D4AA2FB0323D2
:101818005B09642202FB03F3EB1ADB003233584AFC
:10182800A2FB03235B095B0003F4F8731C44FFF776
:1018380013FD024613469B0013449A001A447B6822
:101848005B685B00B2FBF3F5FFF706FD0246134643
:101858009B0013449A001A447B685B685B00B2FBE8
:10186800F3F3474AA2FB03235B09642202FB03F359
:10187800EB1ADB003233424AA2FB03235B0903F075
:1018880007027B681B6822449A60E7E07B681B6854
:10189800394A934204D07B681B68384A934271D115
:1018A800FFF7EEFC024613469B0013449A001A44C5
:1018B8007B685B689B00B2FBF3F3314AA2FB03230E
:1018C8005B091C01FFF7DCFC024613469B0013442E
:1018D8009A001A447B685B689B00B2FBF3F5FFF73C
:1018E800CFFC024613469B0013449A001A447B68B7
:1018F8005B689B00B2FBF3F3214AA2FB03235B095D
:10190800642202FB03F3EB1A1B0132331C4AA2FBCD
:1019180003235B0903F0F0031C44FFF7B1FC024604
:1019280013469B0013449A001A447B685B689B002B
:10193800B2FBF3F5FFF7A4FC024613469B001344E1
:101948009A001A447B685B689B00B2FBF3F30C4A6D
:10195800A2FB03235B09642202FB03F3EB1A1B01BE
:101968003233074AA2FB03235B0903F00F027B68AB
:101978001B6822449A6071E0001001400014014085
:101988001F85EB51FFF768FC024613469B00134482
:101998009A001A447B685B689B00B2FBF3F3314AF8
:1019A800A2FB03235B091C01FFF756FC0246134602
:1019B8009B0013449A001A447B685B689B00B2FB47
:1019C800F3F5FFF749FC024613469B0013449A00BF
:1019D8001A447B685B689B00B2FBF3F3214AA2FBC5
:1019E80003235B09642202FB03F3EB1A1B01323366
:1019F8001C4AA2FB03235B0903F0F0031C44FFF716
:101A08002BFC024613469B0013449A001A447B6839
:101A18005B689B00B2FBF3F5FFF71EFC024613461A
:101A28009B0013449A001A447B685B689B00B2FBD6
:101A3800F3F30C4AA2FB03235B09642202FB03F3C2
:101A4800EB1A1B013233074AA2FB03235B0903F09D
:101A58000F027B681B6822449A60FFE700BF1037BB
:101A6800BD46B0BD1F85EB5180B500AFFEF738FD10
:101A780000F08CF800F012F900F0E6F864230A226E
:101A88002E492F48FFF75DFC03461A462D4B1A7066
:101A98002D4B0C221A702D4B0C221A702C48FEF775
:101AA80017FD0346DAB22B4B1A7064230C2228491F
:101AB8002348FFF746FC03461A46274B1A70274B64
:101AC8000D221A702648FEF703FD0346DAB2254BAD
:101AD8001A70254B0D221A70244B06221A706423A3
:101AE8000D221F491648FFF72CFC03461A46204BC7
:101AF8001A701B48FEF7ECFC0346DBB29AB264236B
:101B080017490F48FFF71DFC03461A46194B1A7070
:101B1800194B0A2219490A48FFF7ACFC03461A4632
:101B2800174B1A704FF4FA630A2216490448FFF754
:101B3800A1FC03461A46144B1A709FE710000020B8
:101B480078000020080000205C000020B900002078
:101B58001C0000206B000020090000206A00002003
:101B6800280000205D00002076000020B80000203A
:101B78000A0000200B0000208096980060000020DA
:101B88000C0000206C0000200D00002080B594B0EF
:101B980000AF07F1200330220021184600F0C2F9F7
:101BA80007F10C0300221A605A609A60DA601A6121
:101BB8000023BB60224B1B6C214A43F08053136403
:101BC8001F4B1B6C03F08053BB60BB6800237B601A
:101BD8001C4B1B681B4A43F440431360194B1B689A
:101BE80003F440437B607B6802233B620123FB6272
:101BF80010233B630023BB6307F120031846FEF75D
:101C080049FF0346002B01D000F062F80F23FB6068
:101C180000233B6100237B610023BB610023FB6140
:101C280007F10C0300211846FFF776F90346002B4D
:101C380001D000F04DF800BF5037BD4680BD00BF51
:101C4800003802400070004080B500AF114B124AC6
:101C58001A60104B4FF4E1325A600E4B00229A6022
:101C68000C4B0022DA600B4B00221A61094B0C2244
:101C78005A61084B00229A61064B0022DA61054836
:101C8800FFF712FB0346002B01D000F021F800BF3C
:101C980080BD00BF780000200044004080B483B0BD
:101CA80000AF00237B60094B1B6B084A43F001031C
:101CB8001363064B1B6B03F001037B607B6800BF5B
:101CC8000C37BD465DF8047B704700BF0038024002
:101CD80080B400AF00BFBD465DF8047B70470000CC
:101CE80080B483B000AF00237B60104B5B6C0F4A5D
:101CF80043F4804353640D4B5B6C03F480437B6077
:101D08007B6800233B60094B1B6C084A43F08053F7
:101D18001364064B1B6C03F080533B603B6800BFA9
:101D28000C37BD465DF8047B704700BF00380240A1
:101D380080B58AB000AF786007F1140300221A60FA
:101D48005A609A60DA601A617B681B68194A934284
:101D58002BD100233B61184B1B6C174A43F400330B
:101D68001364154B1B6C03F400333B613B69002380
:101D7800FB60114B1B6B104A43F0010313630E4BBE
:101D88001B6B03F00103FB60FB680C237B610223E0
:101D9800BB610123FB6103233B6207237B6207F1DD
:101DA800140319460548FEF7F3FC00BF2837BD4663
:101DB80080BD00BF004400400038024000000240DF
:101DC80080B400AF00BFBD465DF8047B704780B4A7
:101DD80000AFFEE780B400AFFEE780B400AFFEE7D7
:101DE80080B400AFFEE780B400AF00BFBD465DF829
:101DF800047B704780B400AF00BFBD465DF8047B2C
:101E0800704780B400AF00BFBD465DF8047B7047E3
:101E180080B500AFFEF7B6FB00BF80BD80B400AF51
:101E2800164BD3F88830154A43F47003C2F888304B
:101E3800134B1B68124A43F001031360104B002236
:101E48009A600F4B1B680E4A23F0847323F4803387
:101E580013600B4B0B4A5A60094B1B68084A23F462
:101E680080231360064B0022DA60044B4FF00062B7
:101E78009A6000BFBD465DF8047B704700ED00E046
:101E88000038024010300024DFF834D0002103E08D
:101E98000C4B5B58435004310B480C4B42189A4288
:101EA800F6D30B4A02E0002342F8043B094B9A425E
:101EB800F9D3FFF7B3FF00F011F8FFF7D5FD70472E
:101EC800000002207C1F0008000000203C000020C9
:101ED8003C000020BC000020FEE7000070B50D4E5D
:101EE8000D4CA41BA4100025A54209D10B4E0C4C87
:101EF80000F020F8A41BA4100025A54205D170BD50
:101F080056F8253098470135EEE756F825309847BA
:101F18000135F2E7741F0008741F0008741F0008D9
:101F2800781F000802440346934200D1704703F823
:101F3800011BF9E7F8B500BFF8BC08BC9E4670471E
:0C1F4800F8B500BFF8BC08BC9E4670470E
:101F54000000000000000000010203040607080955
:081F640000000000010203046B
:081F6C009CE2FF7F0100000070
:041F7400BD010008A3
:041F780099010008C3
:101F7C00100000000100000001010101010100003E
:101F8C0000010203040506070809000048656C6C93
:101F9C006F20776F726C640048656C6C6F20706595
:0C1FAC006F706C65000000000024F40061
:0400000508001E9140
:00000001FF
